:020000040800F2
:1000000000000120910E00083D0C0008430C000880
:10001000490C00084F0C0008550C000800000000B7
:100020000000000000000000000000005B0C000861
:10003000690C000800000000770C0008850C00081F
:10004000E10E0008E10E0008E10E0008E10E0008D4
:10005000E10E0008E10E0008E10E0008E10E0008C4
:10006000E10E0008E10E0008E10E0008E10E0008B4
:10007000E10E0008E10E0008E10E0008E10E0008A4
:10008000E10E0008E10E0008E10E0008000000008B
:10009000000000000000000000000000E10E000869
:1000A000E10E0008E10E0008E10E0008E10E000874
:1000B000E10E0008E10E0008E10E0008E10E000864
:1000C000E10E0008E10E0008E10E0008E10E000854
:1000D000E10E0008910C0008E10E0008000000008D
:1000E000E10E0008E10E0008E10E0008000000002B
:1000F000000000000000000000000000E10E000809
:1001000000000000E10E0008E10E0008E10E00080A
:1001100000000000000000000000000000000000DF
:10012000E10E0008E10E0008A50C0008E10E000831
:10013000E10E0008000000000000000000000000C8
:10014000000000000000000000000000B90C0008E2
:10015000E10E0008E10E0008CD0C0008E10E0008D9
:10016000E10E0008E10E00080000000000000000A1
:10017000000000000000000000000000000000007F
:1001800000000000E10E0008000000000000000078
:04019000E10E000874
:1001A00010B5054C237833B9044B13B10448AFF3B1
:1001B00000800123237010BD90000020000000008B
:1001C0000C9C000808B5034B1BB103490348AFF36F
:1001D000008008BD00000000940000200C9C000876
:1001E00001F0FF01102A2BDB10F0070F08D010F8E8
:1001F000013B013A8B422DD010F0070F42B3F6D1EC
:10020000F0B441EA012141EA014122F007047FF004
:1002100000070023F0E80256083C85EA010586EA5B
:10022000010685FA47F5A3FA87F586FA47F6A5FA97
:1002300087F68EB9EED1F0BC01F0FF0102F00702A3
:1002400032B110F8013B013A83EA010313B1F8D14E
:100250000020704701387047002D06BF354603382F
:10026000073815F0010F07D1013015F4807F02BF68
:10027000013015F4C03F0130F0BC0138704700BFB9
:1002800053B94AB9002908BF00281CBF4FF0FF31FD
:100290004FF0FF3000F074B9ADF1080C6DE904CEF9
:1002A00000F006F8DDF804E0DDE9022304B0704751
:1002B0002DE9F047089D04468E46002B4DD18A4219
:1002C000944669D9B2FA82F252B101FA02F3C2F14C
:1002D000200120FA01F10CFA02FC41EA030E9440DD
:1002E0004FEA1C48210CBEFBF8F61FFA8CF708FBFE
:1002F00016E341EA034306FB07F199420AD91CEBD6
:10030000030306F1FF3080F01F81994240F21C8107
:10031000023E63445B1AA4B2B3FBF8F008FB10334F
:1003200044EA034400FB07F7A7420AD91CEB040484
:1003300000F1FF3380F00A81A74240F20781644454
:10034000023840EA0640E41B00261DB1D4400023D9
:10035000C5E900433146BDE8F0878B4209D9002D3D
:1003600000F0EF800026C5E9000130463146BDE8C7
:10037000F087B3FA83F6002E4AD18B4202D3824231
:1003800000F2F980841A61EB030301209E46002DE0
:10039000E0D0C5E9004EDDE702B9FFDEB2FA82F235
:1003A000002A40F09280A1EB0C014FEA1C471FFA93
:1003B0008CFE0126200CB1FBF7F307FB131140EA7A
:1003C00001410EFB03F0884208D91CEB010103F147
:1003D000FF3802D2884200F2CB804346091AA4B209
:1003E000B1FBF7F007FB101144EA01440EFB00FEDD
:1003F000A64508D91CEB040400F1FF3102D2A64542
:1004000000F2BB800846A4EB0E0440EA03409CE7E0
:10041000C6F12007B34022FA07FC4CEA030C20FA8D
:1004200007F401FA06F31C43F9404FEA1C4900FAAD
:1004300006F3B1FBF9F8200C1FFA8CFE09FB18112A
:1004400040EA014108FB0EF0884202FA06F20BD99D
:100450001CEB010108F1FF3A80F08880884240F2ED
:100460008580A8F102086144091AA4B2B1FBF9F031
:1004700009FB101144EA014100FB0EFE8E4508D92C
:100480001CEB010100F1FF346CD28E456AD90238B1
:10049000614440EA0840A0FB0294A1EB0E01A14296
:1004A000C846A64656D353D05DB1B3EB080261EB04
:1004B0000E0101FA07F722FA06F3F1401F43C5E9DE
:1004C000007100263146BDE8F087C2F12003D84014
:1004D0000CFA02FC21FA03F3914001434FEA1C4756
:1004E0001FFA8CFEB3FBF7F007FB10360B0C43EA48
:1004F000064300FB0EF69E4204FA02F408D91CEBF8
:10050000030300F1FF382FD29E422DD902386344F5
:100510009B1B89B2B3FBF7F607FB163341EA034195
:1005200006FB0EF38B4208D91CEB010106F1FF38E4
:1005300016D28B4214D9023E6144C91A46EA0046DB
:1005400038E72E46284605E70646E3E61846F8E66D
:100550004B45A9D2B9EB020864EB0C0E0138A3E7B6
:100560004646EAE7204694E74046D1E7D0467BE797
:10057000023B614432E7304609E76444023842E70F
:10058000704700BF80B483B000AF78604FF0604325
:10059000D3F8803E03F00103002B13D04FF06043EB
:1005A000D3F8003E03F00103002B0BD000E000BFA6
:1005B0004FF060431B68002BF9D04FF060437A681E
:1005C000D2B21A707B6818460C37BD465DF8047BC2
:1005D000704780B582B000AF78603B1D1846FFF7CA
:1005E000D1FF7B6818460837BD4680BD80B584B012
:1005F00000AF78600B467B800A23FB607A88FB683B
:100600007968034803F065FC00BF1037BD4680BD24
:10061000C402002080B582B000AF78600B467B80BA
:100620007B681B680D4A934213D17B881A460C499C
:100630000C4800F008FA4FF4007209490A4803F028
:10064000DAFC0A4B1B681A68084B1B6822F0080288
:100650001A6000BF0837BD4680BD00BF00100140D2
:10066000C4000020AC000020C402002008030020C9
:1006700080B582B000AF0F4B1A780F4B1B789A42AF
:1006800013D00C4B1B781A460B4B1B780B490C48AC
:1006900008F0FEFC7860084B1A78064B1A707B68ED
:1006A0009BB219460648FFF7A1FF00BF0837BD46B9
:1006B00080BD00BFC8050020AC090020249C0008B4
:1006C000C803002080B500AF00F00CFC00F02EF84D
:1006D00000F0EAF800F0C0F800F094F807F0B4FD7C
:1006E00008220D490D4800F05DF94FF400720C49E5
:1006F0000C4803F080FC0C4B1B681A680A4B1B6803
:1007000022F008021A604FF47A7000F05DFC07F0E6
:10071000C1FDFFF7ADFFFAE7BC000020AC000020F0
:10072000C4000020C40200200803002080B594B05B
:1007300000AF07F1200330220021184608F0C2F86C
:1007400007F10C0300221A605A609A60DA601A619D
:100750000023BB60294B1B6C284A43F08053136471
:10076000264B1B6C03F08053BB60BB6800237B608F
:10077000234B1B6823F44043214A43F40043136096
:100780001F4B1B6803F440437B607B6801233B6283
:100790004FF480337B620223BB634FF48003FB631F
:1007A00019233B644FF4A8737B640423BB640723C1
:1007B000FB6407F12003184602F0E6FE0346002B17
:1007C00001D000F0D1F80F23FB6002233B6100232E
:1007D0007B614FF48053BB610023FB6107F10C0385
:1007E0000221184603F048F90346002B01D000F01F
:1007F000BBF800BF5037BD4680BD00BF0038024087
:100800000070004080B500AF114B124A1A60104BC7
:100810004FF4E1325A600E4B00229A600C4B0022DA
:10082000DA600B4B00221A61094B0C225A61084B0B
:1008300000229A61064B0022DA61054803F0FCFAB7
:100840000346002B01D000F08FF800BF80BD00BF31
:10085000C40200200010014080B582B000AF002328
:100860007B60104B1B6B0F4A43F4800313630D4BEB
:100870001B6B03F480037B607B68002200213A201D
:1008800000F0A1FC3A2000F0BAFC00220021462032
:1008900000F099FC462000F0B2FC00BF0837BD46CE
:1008A00080BD00BF0038024080B58AB000AF07F1BC
:1008B000140300221A605A609A60DA601A610023F9
:1008C0003B61274B1B6B264A43F004031363244B05
:1008D0001B6B03F004033B613B690023FB60204B6F
:1008E0001B6B1F4A43F0800313631D4B1B6B03F00C
:1008F0008003FB60FB680023BB60194B1B6B184A2D
:1009000043F001031363164B1B6B03F00103BB6041
:10091000BB6800237B60124B1B6B114A43F0020340
:1009200013630F4B1B6B03F002037B607B68002299
:100930004FF400510B4801F003FA4FF400537B6170
:100940000123BB610023FB6100233B6207F1140319
:100950001946044801F070F800BF2837BD4680BD35
:10096000003802400008024080B400AF72B600BFF9
:10097000FEE780B483B000AF78607B68DA687B689C
:100980009B68D21A7B685B681A407B685B689A42F6
:100990000CBF01230023DBB218460C37BD465DF8BF
:1009A000047B704780B584B000AFF860B9607A60AE
:1009B0007B685A1E7B681340002B05D00B4B0C4AFA
:1009C00011210C4807F014FFFB68BA681A607B68B5
:1009D0005A1EFB685A60FB6800229A60FB6800227E
:1009E000DA6000BF1037BD4680BD00BF449C0008E0
:1009F0008C9C00086C9C000880B582B000AF7860C9
:100A00000B46FB707868FFF7B4FF0346002B07D056
:100A10007B689B685A1C7B685B681A407B689A609D
:100A20007B681A687B68DB681344FA781A707B6805
:100A3000DB685A1C7B685B681A407B68DA6000BF21
:100A40000837BD4680BD80B586B000AFF860B9609C
:100A50007A6000237B610AE0BA687B6913441B78E3
:100A60001946F868FFF7C8FF7B6901337B617A6933
:100A70007B689A42F0D300BF00BF1837BD4680BDE7
:100A800080B483B000AF00237B60104B5B6C0F4AD7
:100A900043F4804353640D4B5B6C03F480437B60F1
:100AA0007B6800233B60094B1B6C084A43F0805372
:100AB0001364064B1B6C03F080533B603B6800BF24
:100AC0000C37BD465DF8047B704700BF003802401C
:100AD00080B58AB000AF786007F1140300221A6075
:100AE0005A609A60DA601A617B681B684C4A9342CC
:100AF00040F0918000233B614A4B5B6C494A43F0D4
:100B000010035364474B5B6C03F010033B613B697C
:100B10000023FB60434B1B6B424A43F0010313630A
:100B2000404B1B6B03F00103FB60FB684FF4C06399
:100B30007B610223BB610023FB6103233B6207232C
:100B40007B6207F114031946374800F075FF374BF5
:100B5000374A1A60354B4FF000625A60334B00221F
:100B60009A60324B0022DA60304B4FF480621A6197
:100B70002E4B00225A612D4B00229A612B4B0022F2
:100B8000DA612A4B00221A62284B00225A62274857
:100B900000F050FB0346002B01D0FFF7E5FE7B6819
:100BA000224A9A63214A7B689363224B224A1A6045
:100BB000204B4FF000625A601E4B40229A601D4B42
:100BC0000022DA601B4B4FF480621A61194B00223D
:100BD0005A61184B00229A61164B0022DA61154BBC
:100BE00000221A62134B00225A62124800F022FBC4
:100BF0000346002B01D0FFF7B7FE7B680D4A5A630E
:100C00000C4A7B68936300220021252000F0DBFA68
:100C1000252000F0F4FA00BF2837BD4680BD00BF94
:100C2000001001400038024000000240080300208C
:100C30004064024068030020B864024080B400AF02
:100C4000FEE780B400AFFEE780B400AFFEE780B4FB
:100C500000AFFEE780B400AFFEE780B400AF00BF96
:100C6000BD465DF8047B704780B400AF00BFBD4651
:100C70005DF8047B704780B400AF00BFBD465DF8EF
:100C8000047B704780B500AF00F07EF900BF80BDE7
:100C900080B500AF024803F013FA00BF80BD00BF6B
:100CA000C402002080B500AF024800F05BFC00BF2A
:100CB00080BD00BF0803002080B500AF024801F0EE
:100CC000C3FA00BF80BD00BFB009002080B500AFEF
:100CD000024800F047FC00BF80BD00BF6803002051
:100CE00080B400AF01231846BD465DF8047B704711
:100CF00080B582B000AF7860396007F097FD034699
:100D000016221A604FF0FF3318460837BD4680BDE3
:100D100080B582B000AF78604FF0FF317868FFF7A0
:100D2000E7FFFEE780B586B000AFF860B9607A6093
:100D300000237B610AE0AFF300800146BB685A1CC8
:100D4000BA60CAB21A707B6901337B617A697B68C9
:100D50009A42F0DB7B6818461837BD4680BD80B5E7
:100D600086B000AFF860B9607A6000237B6109E06B
:100D7000BB685A1CBA601B781846FFF72AFC7B69CF
:100D800001337B617A697B689A42F1DB7B681846A4
:100D90001837BD4680BD80B483B000AF78604FF097
:100DA000FF3318460C37BD465DF8047B704780B4AE
:100DB00083B000AF786039603B684FF400525A60EE
:100DC000002318460C37BD465DF8047B704780B49D
:100DD00083B000AF7860012318460C37BD465DF83C
:100DE000047B704780B485B000AFF860B9607A606A
:100DF000002318461437BD465DF8047B7047000099
:100E000080B586B000AF7860144A154BD31A7B6169
:100E10007B693B61134B1B68002B02D1114B124ABB
:100E20001A60104B1A687B6813443A699A4207D2D9
:100E300007F0FCFC03460C221A604FF0FF3309E078
:100E4000084B1B68FB60074B1A687B681344054A14
:100E50001360FB6818461837BD4680BD00000120AE
:100E600000040000CC050020C80C002080B400AFB6
:100E7000064BD3F88830054A43F47003C2F8883033
:100E800000BFBD465DF8047B704700BF00ED00E089
:100E9000DFF834D00D480E490E4A002302E0D45842
:100EA000C4500433C4188C42F9D30B4A0B4C0023B2
:100EB00001E013600432A242FBD3FFF7D7FF07F033
:100EC000CDFCFFF7FFFB7047000001200000002071
:100ED00090000020A49D000890000020C40C002079
:100EE000FEE7000080B500AF0E4B1B680D4A43F4CF
:100EF000007313600B4B1B680A4A43F48063136052
:100F0000084B1B68074A43F480731360032000F00A
:100F10004FF90F2000F008F8FFF7B2FD0023184644
:100F200080BD00BF003C024080B582B000AF786059
:100F3000124B1A68124B1B7819464FF47A73B3FBA5
:100F4000F1F3B2FBF3F3184600F067F90346002B08
:100F500001D001230EE07B680F2B0AD800227968AC
:100F60004FF0FF3000F02FF9064A7B681360002332
:100F700000E0012318460837BD4680BD0000002070
:100F8000080000200400002080B400AF064B1B784E
:100F90001A46064B1B681344044A136000BFBD4643
:100FA0005DF8047B704700BF08000020D0050020DA
:100FB00080B400AF034B1B681846BD465DF8047B48
:100FC000704700BFD005002080B584B000AF7860C6
:100FD000FFF7EEFFB8607B68FB60FB68B3F1FF3F93
:100FE00005D00A4B1B781A46FB681344FB6000BF10
:100FF000FFF7DEFF0246BB68D31AFA689A42F7D8B9
:1010000000BF00BF1037BD4680BD00BF08000020F4
:1010100080B485B000AF78607B6803F00703FB60A5
:101020000C4BDB68BB60BA684FF6FF031340BB6034
:10103000FB681A02BB68134343F0BF6343F40033F9
:10104000BB60044ABB68D36000BF1437BD465DF87F
:10105000047B704700ED00E080B400AF044BDB6818
:101060001B0A03F007031846BD465DF8047B704772
:1010700000ED00E080B483B000AF0346FB7197F948
:101080000730002B0BDBFB7903F01F02074997F9B0
:1010900007305B09012000FA02F241F8232000BF6B
:1010A0000C37BD465DF8047B704700BF00E100E0EF
:1010B00080B483B000AF03463960FB7197F9073005
:1010C000002B0ADB3B68DAB20C4997F907301201B2
:1010D000D2B20B4483F800230AE03B68DAB2084935
:1010E000FB7903F00F03043B1201D2B20B441A76D2
:1010F00000BF0C37BD465DF8047B704700E100E09F
:1011000000ED00E080B489B000AFF860B9607A60AB
:10111000FB6803F00703FB61FB69C3F10703042BC2
:1011200028BF0423BB61FB690433062B02D9FB698A
:10113000033B00E000237B614FF0FF32BB6902FA02
:1011400003F3DA43BB681A407B699A404FF0FF31E2
:101150007B6901FA03F3D9437B680B4013431846BC
:101160002437BD465DF8047B7047000080B582B02F
:1011700000AF78607B68013BB3F1807F01D301232E
:101180000FE00A4A7B68013B53600F214FF0FF30AC
:10119000FFF78EFF054B00229A60044B07221A606E
:1011A000002318460837BD4680BD00BF10E000E0B0
:1011B00080B582B000AF78607868FFF729FF00BF84
:1011C0000837BD4680BD80B586B000AF0346B96024
:1011D0007A60FB7300237B61FFF73EFF78617A68DA
:1011E000B9687869FFF78EFF024697F90F3011460C
:1011F0001846FFF75DFF00BF1837BD4680BD80B5BC
:1012000082B000AF0346FB7197F907301846FFF72D
:1012100031FF00BF0837BD4680BD80B582B000AF4A
:1012200078607868FFF7A2FF034618460837BD4686
:1012300080BD000080B586B000AF786000237B6180
:10124000FFF7B6FE38617B68002B01D1012399E0DE
:101250007B68022283F835207B68002283F83420E3
:101260007B681B681A687B681B6822F001021A60A1
:101270000FE0FFF79DFE02463B69D31A052B08D904
:101280007B6820225A657B68032283F8352003237C
:1012900078E07B681B681B6803F00103002BE8D132
:1012A0007B681B681B687B617A69384B13407B61E4
:1012B0007B685A687B689B681A437B68DB681A43C3
:1012C0007B681B691A437B685B691A437B689B696F
:1012D0001A437B68DB691A437B681B6A13437A698C
:1012E00013437B617B685B6A042B07D17B68DA6AF6
:1012F0007B681B6B13437A6913437B617B681B68B4
:101300007A691A607B681B685B697B617B6923F083
:1013100007037B617B685B6A7A6913437B617B6847
:101320005B6A042B17D17B689B6A7A6913437B61E4
:101330007B68DB6A002B0ED0786800F001FB034667
:10134000002B08D07B6840225A657B68012283F815
:101350003520012316E07B681B687A695A6178683A
:1013600000F0B8FA0346FB607B68DB6D3F229A40D1
:10137000FB689A607B6800225A657B68012283F8CB
:101380003520002318461837BD4680BD3F8010F039
:1013900080B586B000AFF860B9607A603B6000232A
:1013A000FB75FB689B6D3B61FB6893F83430012B48
:1013B00001D1022340E0FB68012283F83420FB685E
:1013C00093F83530DBB2012B2FD1FB68022283F872
:1013D0003520FB6800225A653B687A68B968F8686E
:1013E00000F04AFAFB68DB6D3F229A403B699A6045
:1013F000FB681B681A68FB681B6842F016021A60DB
:10140000FB681B6C002B07D0FB681B681A68FB6825
:101410001B6842F008021A60FB681B681A68FB68C8
:101420001B6842F001021A6005E0FB68002283F8A5
:1014300034200223FB75FB7D18461837BD4680BD5E
:1014400080B584B000AF78607B689B6DFB60FFF770
:10145000AFFDB8607B6893F83530DBB2022B08D063
:101460007B6880225A657B68002283F83420012340
:1014700052E07B681B681A687B681B6822F01602C2
:101480001A607B681B685A697B681B6822F08002BF
:101490005A617B681B6C002B03D17B689B6C002B13
:1014A00007D07B681B681A687B681B6822F00802FB
:1014B0001A607B681B681A687B681B6822F001024F
:1014C0001A6013E0FFF774FD0246BB68D31A052BC0
:1014D0000CD97B6820225A657B68032283F835206B
:1014E0007B68002283F83420032315E07B681B68A7
:1014F0001B6803F00103002BE4D17B68DB6D3F2206
:101500009A40FB689A607B68012283F835207B68EB
:10151000002283F83420002318461037BD4680BDD2
:1015200080B483B000AF78607B6893F83530DBB26D
:10153000022B04D07B6880225A6501230CE07B6873
:10154000052283F835207B681B681A687B681B6856
:1015500022F001021A60002318460C37BD465DF8E0
:10156000047B704780B586B000AF78600023BB6015
:101570008E4B1B688E4AA2FB03239B0A7B617B6810
:101580009B6D3B613B691B68FB607B68DB6D0822E0
:101590009A40FB681340002B1AD07B681B681B68BD
:1015A00003F00403002B13D07B681B681A687B6868
:1015B0001B6822F004021A607B68DB6D08229A40E7
:1015C0003B699A607B685B6D43F001027B685A65FA
:1015D0007B68DB6D01229A40FB681340002B12D020
:1015E0007B681B685B6903F08003002B0BD07B6872
:1015F000DB6D01229A403B699A607B685B6D43F02A
:1016000002027B685A657B68DB6D04229A40FB68A6
:101610001340002B12D07B681B681B6803F0020389
:10162000002B0BD07B68DB6D04229A403B699A60EB
:101630007B685B6D43F004027B685A657B68DB6DF9
:1016400010229A40FB681340002B43D07B681B6834
:101650001B6803F00803002B3CD07B68DB6D102275
:101660009A403B699A607B681B681B6803F480237F
:10167000002B18D07B681B681B6803F40023002B29
:1016800008D17B681B6C002B24D07B681B6C7868AE
:1016900098471FE07B689B6C002B1BD07B689B6C82
:1016A0007868984716E07B681B681B6803F48073B2
:1016B000002B07D17B681B681A687B681B6822F0C7
:1016C00008021A607B681B6C002B03D07B681B6CC4
:1016D000786898477B68DB6D20229A40FB6813404E
:1016E000002B00F08F807B681B681B6803F01003E1
:1016F000002B00F087807B68DB6D20229A403B69DD
:101700009A607B6893F83530DBB2052B36D17B6865
:101710001B681A687B681B6822F016021A607B68D7
:101720001B685A697B681B6822F080025A617B68DB
:101730001B6C002B03D17B689B6C002B07D07B6854
:101740001B681A687B681B6822F008021A607B68B5
:10175000DB6D3F229A403B699A607B68012283F8E7
:1017600035207B68002283F834207B681B6D002BBA
:101770007ED07B681B6D7868984779E07B681B6832
:101780001B6803F48023002B1DD07B681B681B683B
:1017900003F40023002B0DD17B685B6C002B31D050
:1017A0007B685B6C786898472CE000BF00000020E5
:1017B000B5814E1B7B68DB6B002B23D07B68DB6B1A
:1017C000786898471EE07B681B681B6803F4807389
:1017D000002B0FD17B681B681A687B681B6822F09E
:1017E00010021A607B68012283F835207B68002292
:1017F00083F834207B68DB6B002B03D07B68DB6BCA
:10180000786898477B685B6D002B32D07B685B6D96
:1018100003F00103002B22D07B68052283F83520DA
:101820007B681B681A687B681B6822F001021A60DB
:10183000BB680133BB607A699A4207D37B681B6837
:101840001B6803F00103002BF2D100E000BF7B68AE
:10185000012283F835207B68002283F834207B68DE
:10186000DB6C002B05D07B68DB6C7868984700E068
:1018700000BF1837BD4680BD80B485B000AFF860AA
:10188000B9607A603B60FB681B681A68FB681B687C
:1018900022F480221A60FB681B683A685A60FB6871
:1018A0009B68402B08D1FB681B687A689A60FB68CC
:1018B0001B68BA68DA6007E0FB681B68BA689A6060
:1018C000FB681B687A68DA6000BF1437BD465DF8B4
:1018D000047B704780B485B000AF78607B681B687C
:1018E000DBB2103B144AA2FB03231B09FB60134A23
:1018F000FB6813441B781A467B68DA65FB68032B88
:1019000009D97B681B6823F47F7323F003031A1D36
:101910007B689A6507E07B681B6823F47F7323F07C
:1019200003037A6893657B689B6D18461437BD4640
:101930005DF8047B704700BFABAAAAAAB89C000858
:1019400080B485B000AF78600023FB737B689B6A2E
:10195000BB607B689B69002B1FD1BB68032B56D8EB
:1019600001A252F823F000BF791900088B19000872
:10197000791900080F1A00087B68DB6A03F080738E
:10198000002B46D00123FB7343E07B68DB6AB3F195
:10199000C07F40D10123FB733DE07B689B69B3F5B9
:1019A000005F21D1BB68032B37D801A252F823F086
:1019B000C1190008C7190008C1190008D919000881
:1019C0000123FB7330E07B68DB6A03F08073002B3C
:1019D00025D00123FB7322E07B68DB6AB3F1C07F73
:1019E0001FD10123FB731CE0BB68022B03D9BB682A
:1019F000032B03D018E00123FB7315E07B68DB6A3F
:101A000003F08073002B0ED00123FB730BE000BFAB
:101A10000AE000BF08E000BF06E000BF04E000BF2E
:101A200002E000BF00E000BFFB7B18461437BD4654
:101A30005DF8047B704700BF80B489B000AF786068
:101A4000396000237B6100233B610023BB610023DD
:101A5000FB6159E10122FB6902FA03F37B613B68F8
:101A60001B687A6913403B613A697B699A4240F08E
:101A700048813B685B6803F00303012B05D03B689A
:101A80005B6803F00303022B30D17B689B68BB616A
:101A9000FB695B00032202FA03F3DB43BA691340DC
:101AA000BB613B68DA68FB695B0002FA03F3BA6961
:101AB0001343BB617B68BA699A607B685B68BB61F2
:101AC0000122FB6902FA03F3DB43BA691340BB61ED
:101AD0003B685B681B0903F00102FB6902FA03F330
:101AE000BA691343BB617B68BA695A603B685B683B
:101AF00003F00303032B17D07B68DB68BB61FB6932
:101B00005B00032202FA03F3DB43BA691340BB61B3
:101B10003B689A68FB695B0002FA03F3BA691343F6
:101B2000BB617B68BA69DA603B685B6803F00303FA
:101B3000022B23D1FB69DA087B68083253F8223084
:101B4000BB61FB6903F007039B000F2202FA03F35A
:101B5000DB43BA691340BB613B681A69FB6903F058
:101B600007039B0002FA03F3BA691343BB61FB69E5
:101B7000DA087B680832B96943F822107B681B6871
:101B8000BB61FB695B00032202FA03F3DB43BA6922
:101B90001340BB613B685B6803F00302FB695B00B9
:101BA00002FA03F3BA691343BB617B68BA691A602E
:101BB0003B685B6803F44033002B00F0A2800023F5
:101BC000FB60574B5B6C564A43F480435364544B61
:101BD0005B6C03F48043FB60FB68524AFB699B0823
:101BE000023352F82330BB61FB6903F003039B000F
:101BF0000F2202FA03F3DB43BA691340BB617B682F
:101C0000494A934219D07B68484A934213D07B6873
:101C1000474A93420DD07B68464A934207D07B687F
:101C2000454A934201D1042308E0072306E0032339
:101C300004E0022302E0012300E00023FA6902F03D
:101C4000030292009340BA691343BB613549FB69B3
:101C50009B080233BA6941F82320384B9B68BB616B
:101C60003B69DB43BA691340BB613B685B6803F4C3
:101C70008013002B03D0BA693B691343BB612F4A21
:101C8000BB6993602D4BDB68BB613B69DB43BA6981
:101C90001340BB613B685B6803F40013002B03D067
:101CA000BA693B691343BB61244ABB69D360234BC8
:101CB0005B68BB613B69DB43BA691340BB613B684E
:101CC0005B6803F40033002B03D0BA693B6913430C
:101CD000BB611A4ABB695360184B1B68BB613B6907
:101CE000DB43BA691340BB613B685B6803F4803334
:101CF000002B03D0BA693B691343BB610F4ABB6930
:101D00001360FB690133FB61FB690F2B7FF6A2AE09
:101D100000BF00BF2437BD465DF8047B704700BF9D
:101D20000038024000380140000002400004024038
:101D300000080240000C024000100240003C01403C
:101D400080B483B000AF78600B467B8013467B7015
:101D50007B78002B03D07A887B689A6103E07B88CC
:101D60001A047B689A6100BF0C37BD465DF8047B9E
:101D70007047F0B58FB00AAF78607B68002B01D157
:101D8000012354E07B681B68FB607B6893F8F932A1
:101D9000DBB2002B06D17B68002283F8F82278683A
:101DA00006F0B0FA7B68032283F8F922FB68DB6B4C
:101DB00003F48073002B02D17B6800221A617B68D8
:101DC0001B68184603F0DEFA7B681B683B607E6880
:101DD0006D4606F110040FCC0FC50FCC0FC594E86B
:101DE000030085E80300331D0ECB386803F058FA72
:101DF0007B681B680121184603F0D5FA7B681B68D5
:101E00003B607E686D4606F110040FCC0FC50FCC09
:101E10000FC594E8030085E80300331D0ECB386836
:101E200003F05EFC7B68012283F8F9220023184648
:101E30001437BD46F0BD90B589B004AF7860084650
:101E400011461A460346FB700B46BB7013467B7067
:101E50007B6893F8F832012B01D1022376E07B688E
:101E6000012283F8F822FB787A682C2101FB03F326
:101E700013443D3300221A70FB787A682C2101FB51
:101E800003F3134438337A781A70FB787A682C217C
:101E900001FB03F3134440333A8D1A80FB787A68D0
:101EA0002C2101FB03F313443933FA781A70FB78C1
:101EB0007A682C2101FB03F313443F3397F8242065
:101EC0001A70FB78BA7802F07F02D0B27A682C21BF
:101ED00001FB03F313443A3302461A7097F90230B8
:101EE000002B09DAFB787A682C2101FB03F31344F9
:101EF0003B3301221A7008E0FB787A682C2101FB41
:101F000003F313443B3300221A70FB787A682C21C8
:101F100001FB03F313443C3397F820201A707B68CD
:101F200018687C78BA78F9783B8D029397F824305A
:101F3000019397F820300093234603F057FD0346A2
:101F4000FB737B68002283F8F822FB7B184614376A
:101F5000BD4690BD80B584B000AF78600B46FB7085
:101F60000023FB737B6893F8F832012B01D1022325
:101F70000FE07B68012283F8F8227B681B68FA78FF
:101F80001146184603F0A7FF7B68002283F8F82269
:101F9000FB7B18461037BD4680BD000080B582B07F
:101FA00000AF7860084611461A460346FB700B46A0
:101FB000BB7013467B70FB787A682C2101FB03F31E
:101FC00013443B33BA781A70FB787A682C2101FBF2
:101FD00003F313443F337A781A703B7C002B12D101
:101FE000FB787A682C2101FB03F31344423303226C
:101FF0001A70FB787A682C2101FB03F313443D33FC
:102000003A7F1A7008E0FB787A682C2101FB03F311
:102010001344423302221A707B78032B00F2C680ED
:1020200001A252F823F000BF3920000899210008CE
:102030009D2000081B2100083B7C012B40F0B8804C
:10204000BB78002B40F0B4803B8B002B08D1FB7891
:102050007A682C2101FB03F31344553301221A70D3
:10206000FB787A682C2101FB03F3134455331B786A
:10207000002B09D1FB787A682C2101FB03F3134470
:10208000423300221A7093E0FB787A682C2101FB1E
:1020900003F31344423302221A7089E0BB78002B09
:1020A0001DD1FB787A682C2101FB03F313445533CF
:1020B0001B78002B09D1FB787A682C2101FB03F3F4
:1020C0001344423300221A7073E0FB787A682C21A3
:1020D00001FB03F31344423302221A7069E0FB78D8
:1020E0007A682C2101FB03F3134454331B78002B33
:1020F00009D1FB787A682C2101FB03F313444233A6
:1021000000221A7055E0FB787A682C2101FB03F35A
:102110001344423302221A704BE0BB78002B1DD1CE
:10212000FB787A682C2101FB03F3134455331B78A9
:10213000002B09D1FB787A682C2101FB03F31344AF
:10214000423300221A7034E0FB787A682C2101FBBC
:1021500003F31344423302221A702AE0FB787A68B0
:102160002C2101FB03F3134454331B78002B09D1BA
:10217000FB787A682C2101FB03F3134442330022DD
:102180001A7016E0FB787A682C2101FB03F31344E4
:10219000423302221A700CE0FB787A682C2101FB92
:1021A00003F31344423300221A7002E000BF00E040
:1021B00000BFFB787A682C2101FB03F313444433FE
:1021C0007A691A60FB783A8B79682C2000FB03F35C
:1021D0000B444C331A60FB787A682C2101FB03F323
:1021E0001344603300221A70FB787A682C2101FBBB
:1021F00003F31344503300221A60FB787A682C21D1
:1022000001FB03F313443933FA781A70FB787A68C8
:102210002C2101FB03F31344613300221A707B6805
:102220001868FB782C2202FB03F338337A68D11844
:102230007B681B69DBB21A4603F0FAFC03461846BA
:102240000837BD4680BD00BF80B586B000AF78605E
:102250007B681B683B613B69FB607B681B681846B9
:1022600003F0FBF90346012B40F0F6807B681B6806
:10227000184603F0DFF90346002B00F0EC807B6882
:102280001B68184603F0D6F9034603F40013B3F5B0
:10229000001F04D17B681B684FF400125A617B68F1
:1022A0001B68184603F0C6F9034603F48013B3F520
:1022B000801F04D17B681B684FF480125A617B68D1
:1022C0001B68184603F0B6F9034603F08063B3F1C8
:1022D000806F04D17B681B684FF080625A617B6815
:1022E0001B68184603F0A6F9034603F00203022B0D
:1022F00003D17B681B6802225A617B681B68184601
:1023000003F098F9034603F00053B3F1005F1CD1CA
:102310007B681B684FF000525A61FB6803F58863C5
:102320001B6803F00103002B0FD11021386903F063
:1023300087F8386903F0B8F87B681B6801211846F4
:1023400003F08EFA786806F04DF87B681B68184633
:1023500003F070F9034603F08073B3F1807F02D17C
:10236000786801F09EF87B681B68184603F062F9F4
:10237000034603F00803082B06D1786806F016F828
:102380007B681B6808225A617B681B68184603F04B
:1023900051F9034603F01003102B01D1012300E093
:1023A0000023002B12D07B681B689A697B681B682E
:1023B00022F010029A61786800F0A1FF7B681B6828
:1023C0009A697B681B6842F010029A617B681B68FF
:1023D000184603F02FF9034603F00073B3F1007FB2
:1023E0003AD17B681B68184603F064FDB86000238F
:1023F0007B6125E07B6903F00F03BA6822FA03F3DF
:1024000003F00103002B18D07B695A01FB681344C9
:1024100003F5A0631B6803F40043B3F5004F06D136
:102420007B69DBB21946786800F0ABF805E07B69A0
:10243000DBB21946786800F0F9FB7B6901337B61F8
:102440007B689B687A699A42D4D37B681B684FF09B
:1024500000725A6100E000BF1837BD4680BD80B5EC
:1024600082B000AF78607B6893F8F832012B01D11D
:10247000022313E07B68012283F8F8227B681B6843
:102480000121184603F050FA7B681B68184602F0D9
:1024900068FF7B68002283F8F8220023184608377B
:1024A000BD4680BD80B582B000AF78607B6893F890
:1024B000F832012B01D102230DE07B68012283F861
:1024C000F8227B681B68184603F03EFE7B680022FA
:1024D00083F8F822002318460837BD4680BD80B532
:1024E00082B000AF78607B681B68184603F0F2F991
:1024F000034618460837BD4680BD80B483B000AFA0
:1025000078600B46FB70FB787A682C2101FB03F3A3
:10251000134460331B7818460C37BD465DF8047BC6
:10252000704780B483B000AF78600B46FB70FB78D7
:102530007A682C2101FB03F3134450331B681846BF
:102540000C37BD465DF8047B704780B582B000AFA4
:1025500078607B681B68184603F036FA0346184615
:102560000837BD4680BD80B582B000AF78607B681B
:102570001B68184603F011FA034618460837BD4693
:1025800080BD80B586B000AF78600B46FB707B687D
:102590001B687B617B693B61FB78FB60FB685A01D0
:1025A0003B69134403F5A0639B6803F00403042B09
:1025B0001AD1FB685A013B69134403F5A0631A461C
:1025C000042393607A68FB682C2101FB03F3134416
:1025D000613306221A707B681B68FA68D2B2114612
:1025E000184603F078FCAFE0FB685A013B691344DE
:1025F00003F5A0639B6803F48073B3F5807F1BD160
:10260000FB685A013B69134403F5A0631A464FF473
:10261000807393607A68FB682C2101FB03F31344F9
:10262000613307221A707B681B68FA68D2B21146C0
:10263000184603F050FC87E0FB685A013B691344DD
:1026400003F5A0639B6803F02003202B09D1FB68EE
:102650005A013B69134403F5A0631A462023936093
:1026600072E0FB685A013B69134403F5A0639B6861
:1026700003F00803082B1AD1FB685A013B69134485
:1026800003F5A0631A46082393607A68FB682C213F
:1026900001FB03F31344613305221A707B681B6846
:1026A000FA68D2B21146184603F015FC4CE0FB68FC
:1026B0005A013B69134403F5A0639B6803F48063EC
:1026C000B3F5806F1BD1FB685A013B69134403F5D6
:1026D000A0631A464FF4806393607A68FB682C21EC
:1026E00001FB03F31344613308221A707B681B68F3
:1026F000FA68D2B21146184603F0EDFB24E0FB68FD
:102700005A013B69134403F5A0639B6803F08003FF
:10271000802B19D1FB685A013B69134403F5A06370
:102720001A46802393607A68FB682C2101FB03F32F
:102730001344613306221A707B681B68FA68D2B2B0
:102740001146184603F0C7FBFB685A013B69134466
:1027500003F5A0639B6803F40073B3F5007F12D107
:102760007B681B68FA68D2B21146184603F0B3FBC7
:10277000FB685A013B69134403F5A0631A464FF402
:10278000007393604EE2FB685A013B69134403F502
:10279000A0639B6803F00103012B40F0DF807B689E
:1027A0001B69002B19D07A68FB682C2101FB03F30D
:1027B000134448331A68FB6859013B690B4403F51D
:1027C000A0631B69C3F31203D21A7968FB682C203B
:1027D00000FB03F30B4450331A607A68FB682C212A
:1027E00001FB03F31344613301221A707A68FB681A
:1027F0002C2101FB03F313445C3300221A60FB68B5
:102800005A013B69134403F5A0631A460123936000
:102810007A68FB682C2101FB03F313443F331B78D8
:10282000002B09D07A68FB682C2101FB03F31344C9
:102830003F331B78022B11D17B681B68FA68D2B238
:102840001146184603F047FBFB685A013B691344E5
:1028500003F5A0631A46102393603AE07A68FB6898
:102860002C2101FB03F313443F331B78032B09D0C6
:102870007A68FB682C2101FB03F313443F331B7878
:10288000012B26D1FB685A013B69134403F5A06371
:102890001B68FA6851013A690A4402F5A06243F0E4
:1028A000005313607A68FB682C2101FB03F3134487
:1028B000603301221A70FB68D9B27A68FB682C2059
:1028C00000FB03F3134460331B781A46786805F065
:1028D00097FD7B681B69012B2BD17A68FB682C2143
:1028E00001FB03F3134448331B687968FA682C2012
:1028F00000FB02F20A4440321288B3FBF2F303F009
:102900000103002B00F08E817A68FB682C2101FB0B
:1029100003F3134454331B7883F00103D8B27A686D
:10292000FB682C2101FB03F31344543302461A7055
:1029300078E17A68FB682C2101FB03F313445433DC
:102940001B7883F00103D8B27A68FB682C2101FB65
:1029500003F31344543302461A7063E1FB685A01CF
:102960003B69134403F5A0639B6803F00203022B49
:1029700040F0F6807A68FB682C2101FB03F31344D6
:1029800061331B78012B09D17A68FB682C2101FB8C
:1029900003F31344603301221A70C9E07A68FB68BC
:1029A0002C2101FB03F3134461331B78052B09D160
:1029B0007A68FB682C2101FB03F313446033052282
:1029C0001A70B5E07A68FB682C2101FB03F313440D
:1029D00061331B78062B09D07A68FB682C2101FB38
:1029E00003F3134461331B78082B50D17A68FB68DA
:1029F0002C2101FB03F313445C331B685A1C7968D8
:102A0000FB682C2000FB03F30B445C331A607A68EC
:102A1000FB682C2101FB03F313445C331B68022B7E
:102A200012D97A68FB682C2101FB03F313445C3351
:102A300000221A607A68FB682C2101FB03F313441F
:102A4000603304221A7073E07A68FB682C2101FB62
:102A500003F31344603302221A70FB685A013B6986
:102A6000134403F5A0631B68BB60BB6823F080437D
:102A7000BB60BB6843F00043BB60FB685A013B6925
:102A8000134403F5A0631A46BB68136050E07A68EC
:102A9000FB682C2101FB03F3134461331B78032BE8
:102AA00022D17A68FB682C2101FB03F313446033C5
:102AB00002221A70FB685A013B69134403F5A063B4
:102AC0001B68BB60BB6823F08043BB60BB6843F0FE
:102AD0000043BB60FB685A013B69134403F5A063E4
:102AE0001A46BB68136023E07A68FB682C2101FB5F
:102AF00003F3134461331B78072B19D17A68FB6801
:102B00002C2101FB03F313445C331B685A1C7968C6
:102B1000FB682C2000FB03F30B445C331A607A68DB
:102B2000FB682C2101FB03F31344603304221A7069
:102B3000FB685A013B69134403F5A0631A4602235C
:102B40009360FB68D9B27A68FB682C2000FB03F322
:102B5000134460331B781A46786805F051FC61E035
:102B6000FB685A013B69134403F5A0639B6803F0BB
:102B70001003102B56D17A68FB682C2101FB03F35C
:102B800013443F331B78032B11D17A68FB682C2147
:102B900001FB03F313445C3300221A607B681B685B
:102BA000FA68D2B21146184603F095F931E07A6816
:102BB000FB682C2101FB03F313443F331B78002BEC
:102BC00009D07A68FB682C2101FB03F313443F33DF
:102BD0001B78022B1DD17A68FB682C2101FB03F3C3
:102BE00013445C3300221A607B681B69002B10D1F0
:102BF0007A68FB682C2101FB03F313446133032241
:102C00001A707B681B68FA68D2B21146184603F046
:102C100062F9FB685A013B69134403F5A0631A4645
:102C20001023936000BF1837BD4680BD80B588B0C3
:102C300000AF78600B46FB707B681B68FB61FB692B
:102C4000BB61FB787B617B695A01BB69134403F567
:102C5000A0639B6803F00403042B1AD17B695A011B
:102C6000BB69134403F5A0631A46042393607A6892
:102C70007B692C2101FB03F31344613306221A7094
:102C80007B681B687A69D2B21146184603F023F9B3
:102C900031E37B695A01BB69134403F5A0639B6868
:102CA00003F02003202B2ED17B695A01BB6913440A
:102CB00003F5A0631A46202393607A687B692C2170
:102CC00001FB03F313443D331B78012B40F01383C6
:102CD0007A687B692C2101FB03F313443D33002206
:102CE0001A707A687B692C2101FB03F3134460336B
:102CF00002221A707B681B687A69D2B211461846A4
:102D000003F0E9F8F7E27B695A01BB69134403F564
:102D1000A0639B6803F40073B3F5007F12D17B6955
:102D20005A01BB69134403F5A0631A464FF40073BC
:102D300093607B681B687A69D2B21146184603F02B
:102D4000CAF8D8E27B695A01BB69134403F5A06352
:102D50009B6803F00103012B40D17A687B692C2129
:102D600001FB03F313445C3300221A607B695A01B0
:102D7000BB69134403F5A0639B6803F04003402B39
:102D800011D17A687B692C2101FB03F313443D3395
:102D900001221A707B695A01BB69134403F5A063D1
:102DA0001A46402393607B695A01BB69134403F5BB
:102DB000A0631A46012393607A687B692C2101FB8A
:102DC00003F31344613301221A707B681B687A692C
:102DD000D2B21146184603F07EF88CE27B695A01A4
:102DE000BB69134403F5A0639B6803F04003402BC9
:102DF0002CD17A687B692C2101FB03F313446133E6
:102E000004221A707A687B692C2101FB03F31344B6
:102E10003D3301221A707A687B692C2101FB03F390
:102E200013445C3300221A607B681B687A69D2B253
:102E30001146184603F04FF87B695A01BB691344E9
:102E400003F5A0631A464023936054E27B695A015C
:102E5000BB69134403F5A0639B6803F00803082BC8
:102E60001AD17B695A01BB69134403F5A0631A4662
:102E7000082393607A687B692C2101FB03F31344D8
:102E8000613305221A707B681B687A69D2B21146D9
:102E9000184603F020F82EE27B695A01BB691344FF
:102EA00003F5A0639B6803F01003102B40D17A68F0
:102EB0007B692C2101FB03F313445C3300221A606D
:102EC0007A687B692C2101FB03F3134461330322ED
:102ED0001A707A687B692C2101FB03F313443D339C
:102EE0001B78002B12D17A687B692C2101FB03F33C
:102EF00013443C331B78002B08D17A687B692C2162
:102F000001FB03F313443D3301221A707B681B68F5
:102F10007A69D2B21146184602F0DDFF7B695A0188
:102F2000BB69134403F5A0631A4610239360E2E1E2
:102F30007B695A01BB69134403F5A0639B6803F0E6
:102F40008003802B64D17B681B69002B11D17A68C8
:102F50007B692C2101FB03F31344613306221A70B1
:102F60007B681B687A69D2B21146184602F0B3FF3B
:102F700044E07A687B692C2101FB03F313445C3342
:102F80001B685A1C79687B692C2000FB03F30B44F7
:102F90005C331A607A687B692C2101FB03F31344CC
:102FA0005C331B68022B20D97A687B692C2101FBDA
:102FB00003F313445C3300221A607A687B692C2186
:102FC00001FB03F31344603304221A707B69D9B206
:102FD0007A687B692C2000FB03F3134460331B7871
:102FE0001A46786805F00CFA08E07A687B692C21AB
:102FF00001FB03F31344603302221A707B695A0108
:10300000BB69134403F5A0631A468023936072E101
:103010007B695A01BB69134403F5A0639B6803F401
:103020008063B3F5806F1BD17A687B692C2101FB2B
:1030300003F31344613308221A707B681B687A69B2
:10304000D2B21146184602F046FF7B695A01BB69AD
:10305000134403F5A0631A464FF4806393604AE17A
:103060007B695A01BB69134403F5A0639B6803F0B5
:103070000203022B40F03F817A687B692C2101FB1F
:1030800003F3134461331B78012B7DD17A687B698C
:103090002C2101FB03F31344603301221A707A6878
:1030A0007B692C2101FB03F313443F331B78022B74
:1030B0000AD07A687B692C2101FB03F313443F3368
:1030C0001B78032B40F000817B681B69002B13D118
:1030D0007A687B692C2101FB03F3134455331B7879
:1030E00083F00103D8B27A687B692C2101FB03F3DA
:1030F0001344553302461A707B681B69012B40F05C
:10310000E3807A687B692C2101FB03F313444C3381
:103110001B68002B00F0D8807A687B692C2101FBAA
:1031200003F313444C331B6879687A692C2000FB45
:1031300002F20A44403212881344013B79687A69EA
:103140002C2000FB02F20A4440321288B3FBF2F357
:10315000FB60FB6803F00103002B00F0B5807A6888
:103160007B692C2101FB03F3134455331B7883F057
:103170000103D8B27A687B692C2101FB03F3134465
:10318000553302461A709FE07A687B692C2101FB57
:1031900003F3134461331B78032B09D17A687B69ED
:1031A0002C2101FB03F31344603302221A708BE0DD
:1031B0007A687B692C2101FB03F3134461331B788C
:1031C000042B09D17A687B692C2101FB03F313449A
:1031D000603302221A7077E07A687B692C2101FB48
:1031E00003F3134461331B78052B09D17A687B699B
:1031F0002C2101FB03F31344603305221A7063E0B2
:103200007A687B692C2101FB03F3134461331B783B
:10321000062B09D07A687B692C2101FB03F3134448
:1032200061331B78082B4FD17A687B692C2101FB15
:1032300003F313445C331B685A1C79687B692C20A8
:1032400000FB03F30B445C331A607A687B692C2122
:1032500001FB03F313445C331B68022B12D97A6819
:103260007B692C2101FB03F313445C3300221A60B9
:103270007A687B692C2101FB03F313446033042239
:103280001A7021E07A687B692C2101FB03F3134457
:10329000603302221A707B695A01BB69134403F53B
:1032A000A0631B683B613B6923F080433B613B6942
:1032B00043F000433B617B695A01BB69134403F54A
:1032C000A0631A463B6913607B695A01BB691344CA
:1032D00003F5A0631A46022393607B69D9B27A682A
:1032E0007B692C2000FB03F3134460331B781A46E0
:1032F000786805F085F800BF2037BD4680BD80B5F1
:103300008AB000AF78607B681B687B627B6A3B6237
:103310007B681B681B6AFB61FB6903F00F03BB61E1
:10332000FB695B0C03F00F037B61FB691B09C3F3B3
:103330000A033B617B69022B04D07B69052B00F0FB
:10334000A980AAE03B69002B00F0A6807A68BB69DF
:103350002C2101FB03F3134444331B68002B00F0C2
:103360009B807A68BB692C2101FB03F31344503323
:103370001A683B691A447968BB692C2000FB03F387
:103380000B444C331B689A427AD87B6818687A6879
:10339000BB692C2101FB03F3134444331B683A69D6
:1033A00092B2194602F0EEF87A68BB692C2101FB53
:1033B00003F3134444331A683B691A447968BB69C0
:1033C0002C2000FB03F30B4444331A607A68BB697A
:1033D0002C2101FB03F3134450331A683B691A4450
:1033E0007968BB692C2000FB03F30B4450331A604F
:1033F000BB695A013B6A134403F5A0631B69DB0CEC
:10340000C3F30903FB607A68BB692C2101FB03F35A
:10341000134440331B881A463B6993423CD1FB68F6
:10342000002B39D0BB695A013B6A134403F5A063F2
:103430001B68BB60BB6823F08043BB60BB6843F084
:103440000043BB60BB695A013B6A134403F5A063A8
:103450001A46BB6813607A68BB692C2101FB03F331
:10346000134454331B7883F00103D8B27A68BB69E4
:103470002C2101FB03F31344543302461A700BE072
:103480007A68BB692C2101FB03F3134460330422E7
:103490001A7001E000BF00E000BF00BF2837BD4642
:1034A00080BD80B586B000AF78607B681B687B61AB
:1034B0007B693B613B6903F588631B68FB603B6983
:1034C00003F588631B68BB60BB6823F02E03BB60F9
:1034D000FB6803F00203022B0BD1FB6803F001032E
:1034E000012B02D1786804F06FFFBB6843F0020340
:1034F000BB60FB6803F00803082B32D1BB6843F0C4
:103500000803BB60FB6803F00403042B26D17B682F
:103510009B69022B13D1FB6803F4C023B3F5802F02
:1035200006D17B681B680221184602F099F911E068
:103530007B681B680121184602F092F90AE07B685B
:10354000DB68012B06D13B6903F580631A464EF612
:1035500060235360786804F061FF02E0786804F04B
:103560006BFFFB6803F02003202B03D1BB6843F003
:103570002003BB603B6903F588631A46BB68136090
:1035800000BF1837BD4680BD80B586B000AF7860FB
:103590007B68002B01D1012367E27B681B6803F085
:1035A0000103002B75D0884B9B6803F00C03042BA0
:1035B0000CD0854B9B6803F00C03082B12D1824B77
:1035C0005B6803F48003B3F5800F0BD17E4B1B685F
:1035D00003F40033002B5BD07B685B68002B57D172
:1035E000012342E27B685B68B3F5803F06D1764BEE
:1035F0001B68754A43F4803313601DE07B685B6889
:10360000B3F5A02F0CD1704B1B686F4A43F4802395
:1036100013606D4B1B686C4A43F4803313600BE0FE
:10362000694B1B68684A23F480331360664B1B6840
:10363000654A23F4802313607B685B68002B13D0FA
:10364000FDF7B6FC386108E0FDF7B2FC02463B69C5
:10365000D31A642B01D9032307E25B4B1B6803F4E5
:103660000033002BF0D014E0FDF7A2FC386108E035
:10367000FDF79EFC02463B69D31A642B01D9032354
:10368000F3E1514B1B6803F40033002BF0D100E051
:1036900000BF7B681B6803F00203002B63D04A4B1A
:1036A0009B6803F00C03002B0BD0474B9B6803F087
:1036B0000C03082B1CD1444B5B6803F48003002BE4
:1036C00016D1414B1B6803F00203002B05D07B6829
:1036D000DB68012B01D00123C7E13B4B1B6823F0C2
:1036E000F8027B681B69DB00374913430B603AE043
:1036F0007B68DB68002B20D0344B01221A60FDF779
:1037000057FC386108E0FDF753FC02463B69D31AC9
:10371000022B01D90323A8E12B4B1B6803F0020302
:10372000002BF0D0284B1B6823F0F8027B681B6944
:10373000DB00254913430B6015E0244B00221A607F
:10374000FDF736FC386108E0FDF732FC02463B69C4
:10375000D31A022B01D9032387E11B4B1B6803F00B
:103760000203002BF0D17B681B6803F00803002BD9
:1037700036D07B685B69002B16D0154B01221A608E
:10378000FDF716FC386108E0FDF712FC02463B69C4
:10379000D31A022B01D9032367E10B4B5B6F03F0B4
:1037A0000203002BF0D01BE0094B00221A60FDF74A
:1037B000FFFB38610EE0FDF7FBFB02463B69D31AC5
:1037C000022B07D9032350E1003802400000474292
:1037D000800E4742884B5B6F03F00203002BEAD157
:1037E0007B681B6803F00403002B00F09780002324
:1037F000FB75814B1B6C03F08053002B0FD1002312
:10380000BB607D4B1B6C7C4A43F0805313647A4B46
:103810001B6C03F08053BB60BB680123FB75774BC7
:103820001B6803F48073002B18D1744B1B68734A18
:1038300043F480731360FDF7BBFB386108E0FDF7CC
:10384000B7FB02463B69D31A022B01D903230CE1D3
:103850006A4B1B6803F48073002BF0D07B689B6875
:10386000012B06D1644B1B6F634A43F001031367BE
:103870001CE07B689B68052B0CD15F4B1B6F5E4A7D
:1038800043F0040313675C4B1B6F5B4A43F0010377
:1038900013670BE0584B1B6F574A23F00103136764
:1038A000554B1B6F544A23F0040313677B689B68D6
:1038B000002B15D0FDF77CFB38610AE0FDF778FBA3
:1038C00002463B69D31A41F28832934201D903235D
:1038D000CBE0494B1B6F03F00203002BEED014E04A
:1038E000FDF766FB38610AE0FDF762FB02463B69C3
:1038F000D31A41F28832934201D90323B5E03E4BFB
:103900001B6F03F00203002BEED1FB7D012B05D1D1
:10391000394B1B6C384A23F0805313647B689B69D6
:10392000002B00F0A180344B9B6803F00C03082BA4
:103930005CD07B689B69022B41D1314B00221A601D
:10394000FDF736FB386108E0FDF732FB02463B69C4
:10395000D31A022B01D9032387E0274B1B6803F0FE
:103960000073002BF0D17B68DA697B681B6A1A430D
:103970007B685B6A9B011A437B689B6A5B08013B1F
:103980001B041A437B68DB6A1B061B4913434B600D
:103990001B4B01221A60FDF70BFB386108E0FDF7B5
:1039A00007FB02463B69D31A022B01D903235CE0D3
:1039B000114B1B6803F00073002BF0D054E0104B48
:1039C00000221A60FDF7F4FA386108E0FDF7F0FA1A
:1039D00002463B69D31A022B01D9032345E0064B6B
:1039E0001B6803F00073002BF0D13DE07B689B69FE
:1039F000012B07D1012338E000380240007000405D
:103A0000600047421B4B5B68FB607B689B69012B36
:103A100028D0FB6803F480027B68DB699A4221D1DD
:103A2000FB6803F03F027B681B6A9A421AD1FA686E
:103A300047F6C07313407A68526A9201934211D1DB
:103A4000FB6803F440327B689B6A5B08013B1B0404
:103A50009A4207D1FB6803F070627B68DB6A1B0641
:103A60009A4201D0012300E0002318461837BD46D2
:103A700080BD00BF0038024080B584B000AF7860E0
:103A800039607B68002B01D10123CCE0684B1B68B7
:103A900003F007033A689A420CD9654B3A68D2B2F0
:103AA0001A70634B1B6803F007033A689A4201D00F
:103AB0000123B8E07B681B6803F00203002B20D0D1
:103AC0007B681B6803F00403002B05D0594B9B68EF
:103AD000584A43F4E05393607B681B6803F0080383
:103AE000002B05D0534B9B68524A43F460439360CC
:103AF000504B9B6823F0F0027B689B684D49134351
:103B00008B607B681B6803F00103002B44D07B684B
:103B10005B68012B07D1474B1B6803F40033002B74
:103B200019D101237FE07B685B68022B03D07B689F
:103B30005B68032B07D13F4B1B6803F00073002B1E
:103B400009D101236FE03B4B1B6803F00203002BFC
:103B500001D1012367E0374B9B6823F003027B68A8
:103B60005B68344913438B60FDF722FAF8600AE082
:103B7000FDF71EFA0246FB68D31A41F288329342DF
:103B800001D903234FE02B4B9B6803F00C027B68A9
:103B90005B689B009A42EBD1254B1B6803F007033F
:103BA0003A689A420CD2224B3A68D2B21A70204B31
:103BB0001B6803F007033A689A4201D0012332E000
:103BC0007B681B6803F00403002B08D0194B9B682B
:103BD00023F4E0527B68DB68164913438B607B68F3
:103BE0001B6803F00803002B09D0124B9B6823F4D9
:103BF00060427B681B69DB000E4913438B6000F059
:103C000021F802460B4B9B681B0903F00F030A497E
:103C1000CB5C22FA03F3094A1360094B1B68184670
:103C2000FDF782F9002318461037BD4680BD00BF5E
:103C3000003C024000380240A09C00080000002028
:103C4000040000202DE9B04F90B000AF00237B634B
:103C50000023FB6300233B630023BB63594B9B683A
:103C600003F00C03082B0DD0082B00F2A180002BD1
:103C700002D0042B03D09BE0534BBB639BE0534B20
:103C8000BB6398E04F4B5B6803F03F037B634D4B96
:103C90005B6803F48003002B28D04A4B5B689B09C8
:103CA00000223B627A623B6AC3F308000021474B63
:103CB00003FB01F2002300FB03F31344434AA0FB80
:103CC0000212FA620A46BA62FA6A1344FB627B6B1A
:103CD0000022BB61FA61D7E90623D7E90A01FCF7A4
:103CE000CFFA02460B461346FB6353E0354B5B6845
:103CF0009B0900223B617A613B69C3F3080A4FF0DC
:103D0000000B52465B464FF000004FF00001590196
:103D100041EAD261500102460B46B2EB0A0863EB5E
:103D20000B094FF000024FF000034FEA891343EAFA
:103D300098634FEA8812B2EB080463EB09054FF071
:103D400000024FF00003EB0043EA5473E200144614
:103D50001D4614EB0A033B6045EB0B037B604FF001
:103D600000024FF00003D7E9004529468B022146A7
:103D700043EA915321468A02104619467B6B002282
:103D8000BB60FA60D7E90223FCF77AFA02460B46D9
:103D90001346FB630B4B5B681B0C03F003030133FF
:103DA0005B003B63FA6B3B6BB2FBF3F3BB6302E07C
:103DB000054BBB6300BFBB6B18464037BD46BDE833
:103DC000B08F00BF003802400024F40040787D012D
:103DD00080B400AF034B1B681846BD465DF8047BFA
:103DE000704700BF0000002080B500AFFFF7F0FF74
:103DF0000246054B9B689B0A03F007030349CB5C13
:103E000022FA03F3184680BD00380240B09C000837
:103E100080B500AFFFF7DCFF0246054B9B685B0BEC
:103E200003F007030349CB5C22FA03F3184680BD75
:103E300000380240B09C000880B582B000AF7860C6
:103E40007B68002B01D101233FE07B6893F83D3074
:103E5000DBB2002B06D17B68002283F83C20786817
:103E6000FCF736FE7B68242283F83D207B681B68C4
:103E7000DA687B681B6822F40052DA60786800F028
:103E80009BFF7B681B681A697B681B6822F4904261
:103E90001A617B681B685A697B681B6822F02A02DA
:103EA0005A617B681B68DA687B681B6842F40052C1
:103EB000DA607B6800221A647B68202283F83D2048
:103EC0007B68202283F83E20002318460837BD4631
:103ED00080BD80B58AB002AFF860B9603B60134620
:103EE000FB8000237B61FB6893F83D30DBB2202B25
:103EF0007CD1BB68002B02D0FB88002B01D10123B1
:103F000075E0FB6893F83C30012B01D102236EE091
:103F1000FB68012283F83C20FB6800221A64FB68DE
:103F2000212283F83D20FDF743F87861FB68FA8889
:103F30009A84FB68FA88DA84FB689B68B3F5805F33
:103F400008D1FB681B69002B04D10023FB61BB680F
:103F5000BB6103E0BB68FB610023BB61FB6800221F
:103F600083F83C202AE03B6800937B690022802193
:103F7000F86800F053FC0346002B01D0032336E021
:103F8000FB69002B0BD1BB691B881A46FB681B68B9
:103F9000C2F308025A60BB690233BB6107E0FB69E8
:103FA0001A78FB681B685A60FB690133FB61FB6888
:103FB000DB8C9BB2013B9AB2FB68DA84FB68DB8C3A
:103FC0009BB2002BCFD13B6800937B69002240213C
:103FD000F86800F023FC0346002B01D0032306E021
:103FE000FB68202283F83D20002300E002231846CE
:103FF0002037BD4680BD80B58CB000AFF860B96099
:104000001346FB80FB6893F83E30DBB2202B52D185
:10401000BB68002B02D0FB88002B01D101234BE0B1
:10402000FB6893F83C30012B01D1022344E0FB688C
:10403000012283F83C20FB6801221A63FB881A46A0
:10404000B968F86800F058FC034687F82F3097F8F5
:104050002F30002B2CD1FB681B6B012B25D10023AB
:104060003B61FB681B681B683B61FB681B685B6806
:104070003B613B69FB681B680C33BB61BB6953E860
:10408000003F7B617B6943F01003BB62FB681B68E8
:104090000C33BA6A7A623B62396A7A6A41E8002371
:1040A000FB61FB69002BE5D102E0012387F82F308B
:1040B00097F82F3000E0022318463037BD4680BD08
:1040C00080B5BAB000AF78607B681B681B68C7F822
:1040D000E4307B681B68DB68C7F8E0307B681B68EE
:1040E0005B69C7F8DC300023C7F8D8300023C7F875
:1040F000D430D7F8E43003F00F03C7F8D830D7F83E
:10410000D830002B0FD1D7F8E43003F02003002B78
:1041100009D0D7F8E03003F02003002B03D07868F3
:1041200000F08FFD56E2D7F8D830002B00F0DE808B
:10413000D7F8DC3003F00103002B06D1D7F8E030CC
:1041400003F49073002B00F0D180D7F8E43003F033
:104150000103002B0BD0D7F8E03003F48073002B61
:1041600005D07B681B6C43F001027B681A64D7F8AA
:10417000E43003F00403002B0BD0D7F8DC3003F05D
:104180000103002B05D07B681B6C43F002027B68A7
:104190001A64D7F8E43003F00203002B0BD0D7F8F1
:1041A000DC3003F00103002B05D07B681B6C43F06F
:1041B00004027B681A64D7F8E43003F00803002B8C
:1041C00011D0D7F8E03003F02003002B05D1D7F849
:1041D000DC3003F00103002B05D07B681B6C43F03F
:1041E00008027B681A647B681B6C002B00F0ED8171
:1041F000D7F8E43003F02003002B08D0D7F8E030E4
:1042000003F02003002B02D0786800F01AFD7B68D1
:104210001B685B6903F04003402B0CBF01230023A4
:10422000DBB2C7F8D4307B681B6C03F00803002BAB
:1042300003D1D7F8D430002B4FD0786800F022FC9F
:104240007B681B685B6903F04003402B41D17B68AE
:104250001B681433C7F89C30D7F89C3053E8003FF4
:10426000C7F89830D7F8983023F04003C7F8D0301B
:104270007B681B681433D7F8D020C7F8A820C7F88C
:10428000A430D7F8A410D7F8A82041E80023C7F835
:10429000A030D7F8A030002BD9D17B689B6B002BC6
:1042A00013D07B689B6B7D4A1A657B689B6B1846B5
:1042B000FDF736F90346002B16D07B689B6B1B6D10
:1042C0007A68926B104698470EE0786800F0A4F97F
:1042D0000AE0786800F0A0F906E0786800F09CF940
:1042E0007B6800221A6470E100BF6EE17B681B6B83
:1042F000012B40F04A81D7F8E43003F01003002B83
:1043000000F04381D7F8E03003F01003002B00F0F9
:104310003C810023BB607B681B681B68BB607B68BB
:104320001B685B68BB60BB687B681B685B6903F0EC
:104330004003402B40F0B4807B689B6B1B685B683C
:10434000A7F8BE30B7F8BE30002B00F040817B6884
:104350009B8DB7F8BE209A4280F039817B68B7F810
:10436000BE20DA857B689B6BDB69B3F5807F00F04C
:1043700088807B681B680C33C7F88830D7F8883092
:1043800053E8003FC7F88430D7F8843023F48073B3
:10439000C7F8B8307B681B680C33D7F8B820C7F86B
:1043A0009420C7F89030D7F89010D7F8942041E8BF
:1043B0000023C7F88C30D7F88C30002BD9D17B681C
:1043C0001B6814337B677B6F53E8003F3B673B6F91
:1043D00023F00103C7F8B4307B681B681433D7F8A7
:1043E000B420C7F88020FB67F96FD7F8802041E838
:1043F0000023BB67BB6F002BE1D17B681B681433C4
:104400003B663B6E53E8003FFB65FB6D23F04003CA
:10441000C7F8B0307B681B681433D7F8B020FA6651
:10442000BB66B96EFA6E41E800237B667B6E002B9B
:10443000E3D17B68202283F83E207B6800221A6348
:104440007B681B680C33FB64FB6C53E8003FBB6468
:10445000BB6C23F01003C7F8AC307B681B680C33CF
:10446000D7F8AC20BA657B65796DBA6D41E8002359
:104470003B653B6D002BE3D17B689B6B1846FCF7DB
:10448000DFFF7B689A8D7B68DB8D9BB2D31A9BB272
:1044900019467868FCF7BEF899E000BF4B4B00085E
:1044A0007B689A8D7B68DB8D9BB2D31AA7F8CE30E0
:1044B0007B68DB8D9BB2002B00F08B80B7F8CE3091
:1044C000002B00F086807B681B680C33BB63BB6BE2
:1044D00053E8003F7B637B6B23F49073C7F8C830CD
:1044E0007B681B680C33D7F8C8207A643B64396C4E
:1044F0007A6C41E80023FB63FB6B002BE3D17B6804
:104500001B6814337B627B6A53E8003F3B623B6A63
:1045100023F00103C7F8C4307B681B681433D7F855
:10452000C4203A63FB62F96A3A6B41E80023BB623C
:10453000BB6A002BE3D17B68202283F83E207B6896
:1045400000221A637B681B680C333B613B6953E8AC
:10455000003FFB60FB6823F01003C7F8C0307B68A6
:104560001B680C33D7F8C020FA61BB61B969FA69DE
:1045700041E800237B617B69002BE3D1B7F8CE30A3
:1045800019467868FCF746F823E0D7F8E43003F0E2
:104590008003002B09D0D7F8E03003F08003002B14
:1045A00003D0786800F0E5FA14E0D7F8E43003F0BF
:1045B0004003002B0ED0D7F8E03003F04003002B6F
:1045C00008D0786800F025FB04E000BF02E000BFDF
:1045D00000E000BFE837BD4680BD00BF80B483B0B7
:1045E00000AF786000BF0C37BD465DF8047B7047B4
:1045F00080B483B000AF786000BF0C37BD465DF873
:10460000047B704780B483B000AF786000BF0C3784
:10461000BD465DF8047B704780B483B000AF78601E
:1046200000BF0C37BD465DF8047B704780B59CB079
:1046300000AF78607B689B6BFB667B681B681B68C0
:1046400003F48073002B72D1FB6E0022DA85FB6EBF
:104650001B680C33FB64FB6C53E8003FBB64BB6C12
:1046600023F48073BB66FB6E1B680C33BA6EBA65AD
:104670007B65796DBA6D41E800233B653B6D002B8E
:10468000E5D1FB6E1B681433BB63BB6B53E8003F83
:104690007B637B6B23F001037B66FB6E1B6814332B
:1046A0007A6E7A643B64396C7A6C41E80023FB6370
:1046B000FB6B002BE5D1FB6E1B6814337B627B6ABE
:1046C00053E8003F3B623B6A23F040033B66FB6ECE
:1046D0001B6814333A6E3A63FB62F96A3A6B41E83D
:1046E0000023BB62BB6A002BE5D1FB6E202283F85E
:1046F0003E20FB6E1B6B012B19D1FB6E1B680C332C
:104700003B613B6953E8003FFB60FB6823F010030B
:10471000FB65FB6E1B680C33FA6DFA61BB61B9690E
:10472000FA6941E800237B617B69002BE5D1FB6ED0
:104730001B6B012B06D1FB6E9B8D1946F86EFBF7A8
:1047400069FF02E0F86EFFF753FF00BF7037BD4608
:1047500080BD80B584B000AF78607B689B6BFB60E8
:10476000FB681B6B012B08D1FB689B8D5B089BB220
:104770001946F868FBF74EFF02E0F868FFF742FFC2
:1047800000BF1037BD4680BD80B584B000AF7860F3
:104790000023FB607B689B6BBB60BB681B685B692D
:1047A00003F08003802B0CBF01230023DBB2FB60EE
:1047B000BB6893F83D30DBB2212B08D1FB68002B9E
:1047C00005D0BB680022DA84B86800F033F9BB6812
:1047D0001B685B6903F04003402B0CBF01230023DF
:1047E000DBB2FB60BB6893F83E30DBB2222B08D112
:1047F000FB68002B05D0BB680022DA85B86800F0A2
:1048000041F9BB681B6C43F01002BB681A64B868BE
:10481000FFF702FF00BF1037BD4680BD80B590B0E6
:1048200000AFF860B9603B601346FB7150E0BB6CB1
:10483000B3F1FF3F4CD0BB6C002B07D0FCF7B8FBAB
:1048400002463B68D31ABA6C9A4241D2FB681B6895
:104850000C33BB62BB6A53E8003F7B627B6A23F484
:10486000D073FB63FB681B680C33FA6B7A633B63A2
:10487000396B7A6B41E80023FB62FB6A002BE5D1C0
:10488000FB681B6814337B617B6953E8003F3B6125
:104890003B6923F00103BB63FB681B681433BA6BED
:1048A0003A62FB61F9693A6A41E80023BB61BB697E
:1048B000002BE5D1FB68202283F83D20FB682022F5
:1048C00083F83E20FB68002283F83C2003230FE09E
:1048D000FB681B681A68BB681340BA689A420CBF31
:1048E00001230023DBB21A46FB799A429FD00023B2
:1048F00018464037BD4680BD80B598B000AFF8601F
:10490000B9601346FB80BA68FB689A62FB68FA8854
:104910009A85FB6800221A64FB68222283F83E20F5
:10492000FB689B6B404ADA63FB689B6B3F4A1A64E7
:10493000FB689B6B3E4ADA64FB689B6B00221A653E
:1049400007F10803FB65FB68986BFB681B68043381
:104950001946FB6D1A68FB88FCF71AFD00233B61C2
:10496000FB681B681B683B61FB681B685B683B61FD
:104970003B69FB68002283F83C20FB681B69002B25
:1049800019D0FB681B680C333B643B6C53E8003F59
:10499000FB63FB6B43F48073BB65FB681B680C33E4
:1049A000BA6DFA64BB64B96CFA6C41E800237B64AD
:1049B0007B6C002BE5D1FB681B681433FB62FB6A40
:1049C00053E8003FBB62BB6A43F001037B65FB68B1
:1049D0001B6814337A6DBA637B63796BBA6B41E8F9
:1049E00000233B633B6B002BE5D1FB681B68143352
:1049F000BB61BB6953E8003F7B617B6943F04003C7
:104A00003B65FB681B6814333A6D7A623B62396A16
:104A10007A6A41E80023FB61FB69002BE5D10023A2
:104A200018466037BD4680BD2D4600085347000834
:104A30008947000880B489B000AF78607B681B6844
:104A40000C33FB60FB6853E8003FBB60BB6823F09E
:104A5000C003FB617B681B680C33FA69BA617B6138
:104A60007969BA6941E800233B613B69002BE5D1D4
:104A70007B68202283F83D2000BF2437BD465DF8C7
:104A8000047B704780B495B000AF78607B681B688A
:104A90000C337B637B6B53E8003F3B633B6B23F43E
:104AA0009073FB647B681B680C33FA6C3A64FB639D
:104AB000F96B3A6C41E80023BB63BB6B002BE5D17B
:104AC0007B681B6814333B623B6A53E8003FFB6121
:104AD000FB6923F00103BB647B681B681433BA6C69
:104AE000FA62BB62B96AFA6A41E800237B627B6AB8
:104AF000002BE5D17B681B6B012B19D17B681B68F0
:104B00000C33FB60FB6853E8003FBB60BB6823F0DD
:104B100010037B647B681B680C337A6CBA617B6121
:104B20007969BA6941E800233B613B69002BE5D113
:104B30007B68202283F83E207B6800221A6300BF36
:104B40005437BD465DF8047B704780B584B000AF34
:104B500078607B689B6BFB60FB680022DA85FB68F2
:104B60000022DA84F868FFF757FD00BF1037BD4612
:104B700080BD80B485B000AF78607B6893F83D302D
:104B8000DBB2212B3ED17B689B68B3F5805F14D1EB
:104B90007B681B69002B10D17B681B6AFB60FB687C
:104BA0001B881A467B681B68C2F308025A607B6840
:104BB0001B6A9A1C7B681A6208E07B681B6A591C96
:104BC0007A6811621A787B681B685A607B68DB8C94
:104BD0009BB2013B9BB27A681946D184002B0FD15E
:104BE0007B681B68DA687B681B6822F08002DA60E9
:104BF0007B681B68DA687B681B6842F04002DA60F9
:104C0000002300E0022318461437BD465DF8047BFC
:104C1000704780B582B000AF78607B681B68DA6847
:104C20007B681B6822F04002DA607B68202283F8F0
:104C30003D207868FFF7D2FC002318460837BD46B0
:104C400080BD80B58CB000AF78607B6893F83E3053
:104C5000DBB2222B40F0AB807B689B68B3F5805FB2
:104C600017D17B681B69002B13D10023FB627B6883
:104C70009B6ABB627B681B685B689BB2C3F30803DB
:104C80009AB2BB6A1A807B689B6A9A1C7B689A629C
:104C900026E07B689B6AFB620023BB627B689B68A3
:104CA000B3F5805F07D07B689B68002B0AD17B68D7
:104CB0001B69002B06D17B681B685B68DAB2FB6A54
:104CC0001A7008E07B681B685B68DBB203F07F0347
:104CD000DAB2FB6A1A707B689B6A5A1C7B689A621C
:104CE0007B68DB8D9BB2013B9BB27A681946D1850C
:104CF000002B5AD17B681B68DA687B681B6822F03E
:104D00002002DA607B681B68DA687B681B6822F423
:104D10008072DA607B681B685A697B681B6822F0C6
:104D200001025A617B68202283F83E207B681B6B5E
:104D3000012B35D17B6800221A637B681B680C331A
:104D40007B617B6953E8003F3B613B6923F01003C3
:104D50007B627B681B680C337A6A3A62FB61F96993
:104D60003A6A41E80023BB61BB69002BE5D17B684F
:104D70001B681B6803F01003102B0AD10023FB6093
:104D80007B681B681B68FB607B681B685B68FB605B
:104D9000FB687B689B8D19467868FBF73BFC02E05B
:104DA0007868FFF725FC002302E0002300E00223DF
:104DB00018463037BD4680BD2DE9B04FC0B000AFBA
:104DC000C7F8F400D7F8F4301B681B6923F440508F
:104DD000D7F8F430D968D7F8F4301A6840EA0103FC
:104DE0001361D7F8F4309A68D7F8F4301B691A4386
:104DF000D7F8F4305B691A43D7F8F430DB69134312
:104E0000C7F8F830D7F8F4301B68DB6823F4164194
:104E100021F00C01D7F8F4301A68D7F8F8300B43BA
:104E2000D360D7F8F4301B685B6923F44070D7F87F
:104E3000F4309969D7F8F4301A6840EA01035361F5
:104E4000D7F8F4301A688F4B9A4205D0D7F8F4306F
:104E50001A688D4B9A4204D1FEF7DAFFC7F8FC00BE
:104E600003E0FEF7C1FFC7F8FC00D7F8F430DB69B8
:104E7000B3F5004F40F00C81D7F8FC300022C7F8A2
:104E8000E830C7F8EC20D7E93A4522462B4691187E
:104E9000B9655B41FB65D7E91623214612EB010892
:104EA000294643EB01094FF000024FF000034FEA9F
:104EB000C90343EA58734FEAC8029046994623460D
:104EC00018EB0303C7F8E0302B4649EB0303C7F8A0
:104ED000E430D7F8F4305B680022C7F8D830C7F860
:104EE000DC20D7E936120B46DB183B65134642EB54
:104EF00003037B65D7E91423D7E93801FBF7C0F931
:104F000002460B46614BA3FB02235B091C01D7F849
:104F1000FC300022C7F8D030C7F8D420D7E9348954
:104F200042464B469118B9645B41FB64D7E91223B2
:104F3000414612EB010A494643EB010B4FF00002D8
:104F40004FF000034FEACB0343EA5A734FEACA0219
:104F500092469B4643461AEB0303C7F8C8304B46BC
:104F60004BEB0303C7F8CC30D7F8F4305B68002272
:104F7000C7F8C030C7F8C420D7E930120B46DB1899
:104F80003B64134642EB03037B64D7E91023D7E964
:104F90003201FBF775F902460B4611463B4BA3FB6A
:104FA00001235B09642202FB03F3CB1ADB0003F14C
:104FB0003202364BA3FB02235B095B0003F4F87358
:104FC0001C44D7F8FC300022C7F8B830C7F8BC2022
:104FD000D7E92E8942464B469118B9635B41FB6382
:104FE000D7E90E2341465118396349464B417B634B
:104FF0004FF000024FF00003D7E90CAB5946CB004D
:10500000514643EA51735146CA00104619460346B9
:1050100042469B18C7F8B0304B460A4642EB0303A2
:10502000C7F8B430D7F8F4305B680022C7F8A8306E
:10503000C7F8AC20D7E92A120B46DB18BB6213462F
:1050400042EB0303FB62D7E90A23D7E92C01FBF704
:1050500017F902460B460D4BA3FB02135B096421B3
:1050600001FB03F3D31ADB003233084AA2FB03230C
:105070005B0903F00702D7F8F4301B6822449A60FA
:1050800005E100BF00100140001401401F85EB51F5
:10509000D7F8FC300022C7F8A030C7F8A420D7E921
:1050A000288942464B46911839625B417B62D7E9B9
:1050B000082341465418494643EB01054FF00002CE
:1050C0004FF00003EB0043EA5473E20014461D4620
:1050D0004346E318C7F898304B4645EB0303C7F83F
:1050E0009C30D7F8F4305B680022C7F89030C7F8DE
:1050F00094204FF000024FF00003D7E924452946E1
:105100008B00214643EA917321468A00D7E92601A4
:10511000FBF7B6F802460B46604BA3FB02235B0984
:105120001C01D7F8FC300022C7F88830C7F88C2063
:10513000D7E9228942464B469118B9615B41FB6130
:10514000D7E9062341465118396149464B417B61F5
:105150004FF000024FF00003D7E904AB5946CB00F3
:10516000514643EA51735146CA0010461946034658
:1051700042469B18C7F880304B460A4642EB030371
:10518000C7F88430D7F8F4305B680022BB67FA6751
:105190004FF000024FF00003D7E91E8949468B000B
:1051A000414643EA917341468A00D7E92001FBF763
:1051B00067F802460B46394BA3FB02135B096421D7
:1051C00001FB03F3D31A1B013233344AA2FB03233E
:1051D0005B0903F0F0031C44D7F8FC3000223B6766
:1051E0007A67D7E91C8942464B469118B9605B4102
:1051F000FB60D7E9022341465118396049464B41CB
:105200007B604FF000024FF00003D7E900AB594636
:10521000CB00514643EA51735146CA001046194625
:10522000034642469B18BB664B460A4642EB0303C5
:10523000FB66D7F8F4305B6800223B667A664FF075
:1052400000024FF00003D7E9188949468B00414618
:1052500043EA917341468A00D7E91A01FBF710F837
:1052600002460B460D4BA3FB02135B09642101FBB5
:1052700003F3D31A1B013233084AA2FB03235B0951
:1052800003F00F02D7F8F4301B6822449A6000BF85
:1052900007F58077BD46BDE8B08F00BF1F85EB5195
:1052A00084B080B584B000AF786007F11C0080E85E
:1052B0000E003B6B012B22D17B689B6B23F4803269
:1052C0007B689A637B68DB6823F4840323F04003E4
:1052D0007A68D3607B68DB6823F440127B68DA600D
:1052E000FB6C012B05D17B68DB6843F480127B6883
:1052F000DA60786800F0C0F90346FB731AE07B6857
:10530000DB6843F040027B68DA60786800F0B4F94B
:105310000346FB733B6C002B06D17B689B6B43F40D
:1053200080327B689A6305E07B689B6B23F4803254
:105330007B689A63BB6A012B0BD17B689B6843F047
:1053400006027B689A607B689B6843F020027B685A
:105350009A60FB7B18461037BD46BDE8804004B01C
:10536000704780B483B000AF78607B689B6843F07F
:1053700001027B689A60002318460C37BD465DF831
:10538000047B704780B483B000AF78607B689B6813
:1053900023F001027B689A60002318460C37BD4653
:1053A0005DF8047B704780B584B000AF78600B4631
:1053B000FB700023FB607B68DB6823F0C0427B68E6
:1053C000DA60FB78012B15D17B68DB6843F0005273
:1053D0007B68DA600120FBF7F7FDFB680133FB60B7
:1053E000786800F03AF90346012B1ED0FB68312B98
:1053F000F0D91AE0FB78002B15D17B68DB6843F00D
:1054000080427B68DA600120FBF7DEFDFB68013338
:10541000FB60786800F021F90346002B05D0FB689B
:10542000312BF0D901E0012305E0FB68322B01D1DB
:10543000012300E0002318461037BD4680BD000060
:1054400080B485B000AF786039600023FB60FB68F2
:105450000133FB60FB68134A934201D903231BE02D
:105460007B681B69002BF2DA0023FB603B689B0121
:1054700043F020027B681A61FB680133FB60FB6824
:10548000084A934201D9032306E07B681B6903F0B5
:105490002003202BF0D0002318461437BD465DF8BA
:1054A000047B7047400D030080B485B000AF786086
:1054B0000023FB60FB680133FB60FB68114A9342E9
:1054C00001D9032318E07B681B69002BF2DA002363
:1054D000FB607B6810221A61FB680133FB60FB688C
:1054E000084A934201D9032306E07B681B6903F055
:1054F0001003102BF0D0002318461437BD465DF87A
:10550000047B7047400D030080B489B000AFF860A1
:10551000B96011461A460B46FB711346BB80FB6807
:105520007B61BB68FB6197F82830002B23D1BB88D7
:1055300003339B083B610023BB6118E0FB791A032E
:105540007B69134403F580531A46FB691B6813609B
:10555000FB690133FB61FB690133FB61FB690133CB
:10556000FB61FB690133FB61BB690133BB61BA6954
:105570003B699A42E2D3002318462437BD465DF8C2
:10558000047B704780B48BB000AFF860B9601346FD
:10559000FB80FB68BB61BB687B62FB889B089BB29E
:1055A0007B61FB8803F00303FB8300233B6214E071
:1055B000BB6903F580531A687B6A1A607B6A013302
:1055C0007B627B6A01337B627B6A01337B627B6A2D
:1055D00001337B623B6A01333B623A6A7B699A42E0
:1055E000E6D3FB8B002B1ED000233B62BB6903F587
:1055F00080531A4607F1100312681A603A693B6A31
:10560000DBB2DB0022FA03F3DAB27B6A1A703B6A80
:1056100001333B627B6A01337B62FB8B013BFB8383
:10562000FB8B002BEAD17B6A18462C37BD465DF810
:10563000047B704780B485B000AF78607B685B699D
:10564000FB607B689B69FA681340FB60FB68184647
:105650001437BD465DF8047B704780B483B000AF5B
:1056600078607B685B6903F0010318460C37BD4620
:105670005DF8047B7047000080B485B000AF7860AF
:105680000023FB60FB680133FB60FB68134A934215
:1056900001D903231BE07B681B69002BF2DA00238E
:1056A000FB607B681B6943F001027B681A61FB6841
:1056B0000133FB60FB68094A934201D9032306E0EA
:1056C0007B681B6903F00103012BF0D0002318460F
:1056D0001437BD465DF8047B704700BF400D0300E2
:1056E00084B080B586B000AF786007F1240080E810
:1056F0000E000023FB757B68FB60FB6803F56063AD
:105700001A46002313607B689B6B43F400127B688E
:105710009A637B689B6B23F400227B689A637B68A7
:105720009B6B23F480227B689A637B68DB6B03F4BA
:105730008073002B18D0FB6A012B0AD1FB6803F59C
:1057400080631B68FA6802F5806243F0040313600B
:1057500014E0FB6803F580631B68FA6802F5806259
:1057600023F00403136009E0FB6803F580631B6802
:10577000FA6802F5806223F0040313601021786850
:10578000FFF75EFE0346002B01D00123FB7578680E
:10579000FFF78AFE0346002B01D00123FB7500238F
:1057A0003B6115E03B695A01FB68134403F5A063B4
:1057B0001A464FF0FF3393603B695A01FB6813446C
:1057C00003F5A0631A460023D3603B6901333B61B4
:1057D000BB6A3A699A42E5D37B6800229A617B688A
:1057E0004FF0FF325A617B68DB6B03F48073002B50
:1057F0000BD07B684FF400725A627B68134A9A623E
:105800007B68134AC3F8002109E07B6880225A6252
:105810007B68104A9A627B680F4AC3F800213B6B91
:10582000002B05D17B689B6943F010027B689A616D
:105830007B689A69094B13437A689361FB7D18462C
:105840001837BD46BDE8804004B070470002000133
:105850000003E00080006000E0004000080020A39A
:1058600080B485B000AF78600B46FB707B68FB604E
:10587000FB6803F580631B68FA6802F5806223F019
:1058800003031360FB6803F580631A68FB7803F079
:105890000303F96801F5806113430B60FB78012B6A
:1058A00007D1FB6803F580631A464BF680335360DB
:1058B00009E0FB78022B06D1FB6803F580631A46EA
:1058C00041F270735360002318461437BD465DF8EB
:1058D000047B704780B584B000AF78607B68FB6064
:1058E0000023BB60FB6803F588631B68BB60BB6873
:1058F00023F02E03BB60BB68FA6802F5886243F4AC
:10590000807313606420FBF75FFBBB68FA6802F5E5
:10591000886223F4807313600A20FBF755FB002391
:1059200018461037BD4680BD80B485B000AF7860A2
:105930000B46FB707B68FB600023BB60FB6803F5D4
:1059400088631B68BB60BB6823F02E03BB60BB6829
:1059500003F48053002B09D1FB78012B06D1BB68DF
:10596000FA6802F5886243F480531360BB6803F45D
:105970008053B3F5805F09D1FB78002B06D1BB685B
:10598000FA6802F5886223F48053136000231846F6
:105990001437BD465DF8047B704780B485B000AF16
:1059A00078607B68FB600023BB60FB6803F588635D
:1059B0001B68BB60BB685B0C03F00303184614371D
:1059C000BD465DF8047B704780B485B000AF786059
:1059D0007B68FB60FB6803F580639B689BB218469D
:1059E0001437BD465DF8047B7047000080B588B071
:1059F00000AF7860084611461A460346FB700B4616
:105A0000BB7013467B700023FB777B683B61FB78A0
:105A10005A013B69134403F5A0631A464FF0FF3364
:105A2000936097F82C30032B7ED801A252F823F014
:105A3000415A0008EB5A0008415A0008AD5A0008C4
:105A4000FB785A013B69134403F5A0631A4640F200
:105A50009D43D36097F90230002B10DAFB785A018E
:105A60003B69134403F5A063DB68FA7851013A6996
:105A70000A4402F5A06243F48073D36057E07B6868
:105A8000DB6B03F48073002B51D0FB785A013B6928
:105A9000134403F5A063DB68FA7851013A690A44BC
:105AA00002F5A06243F06003D36040E0FB785A0146
:105AB0003B69134403F5A0631A4640F29D63D3602B
:105AC00097F90230002B34DAFB785A013B69134412
:105AD00003F5A063DB68FA7851013A690A4402F5DC
